:100000000C94C5020C942F260C94E2020C94E2028C
:100010000C94E2020C94E2020C94E2020C94E202D0
:100020000C94E2020C94E2020C94CE1F0C948A1FF2
:100030000C94CB200C94E2020C94E2020C94E202A9
:100040000C94E2020C94E2020C94E2020C94E202A0
:100050000C94E2020C94A7200C94E2020C94E202AD
:100060000C94E2020C94E2020C94E2020C94E20280
:100070000C94E2020C94E2020C94E2020C94E20270
:100080000C94E2020C94E2020C94E2020C94E20260
:100090000C94E2020C94E2020C94E2020C94E20250
:1000A0000C94E2020C94E2020C94E20235001E0071
:1000B0001F00200021002200230000002B0014005C
:1000C0001A0008001500170000000000E0000400FE
:1000D0001600070009000A0000000000314100007E
:1000E0001D001B0006001900050000002900E200A9
:1000F000E0000000E30000002C0000000000000011
:1001000000000000000000000000000024002500A6
:10011000260027002D002E002A002A001C001800AF
:100120000C00120013002F00300031000B000D00F6
:100130000E000F0033003400AE0028001100100044
:1001400036003700AA003800E50052002C002C00D1
:100150004F00E700E400E6005000510000000000FE
:1001600000000000000000000000A90000000000E6
:10017000000000000000000000000000000000007F
:10018000000000000000000000000000000000006F
:10019000000000000000000000000000000000005F
:1001A000000000000000000000000000000000004F
:1001B000000000000000000000000000000000003F
:1001C000000000000000000000000000000000002F
:1001D000000000000000000000000000000000001F
:1001E000000000000000000000000000CF00CE0072
:1001F000CD00D00000000000000000000000000062
:10020000000000000000000000000000D10000001D
:1002100000000000000000000000000000000000DE
:100220000000000000000000000000001E0F05009C
:10023000047F3F1F643214643214783C1E1E140A7B
:100240000500010101010101010101020202020296
:10025000020202020303030303030303040404046E
:100260000404040505050505060606060607070736
:10027000070708080808090909090A0A0A0B0B0BED
:100280000C0C0C0D0D0D0E0E0E0F0F0F101011118A
:10029000111212131314141515161617171818190E
:1002A000191A1A1B1B1C1D1D1E1E1F202021222275
:1002B000232424252626272829292A2B2C2D2D2EB8
:1002C0002F30313232333435363738393A3B3C3DD2
:1002D0003E3F404142434445464748494A4C4D4EC3
:1002E0004F50515354555658595A5B5D5E5F616289
:1002F00064656668696B6C6D6F7072737577787A18
:100300007B7D7E8082838587888A8C8E8F91939572
:1003100096989A9C9EA0A2A3A5A7A9ABADAFB1B396
:10032000B5B7BABCBEC0C2C4C6C9CBCDCFD1D4D676
:10033000D8DBDDDFE2E4E7E9EBEEF0F3F5F8FAFD18
:10034000FFFFAA7F55402223252628292A2C2D2F5E
:100350003032333536383A3B3D3E404243454749DB
:100360004A4C4E5051535557595A5C5E6062646610
:1003700068696B6D6F71737577797B7D7F8183851C
:1003800087898A8C8E90929496989A9C9E9FA1A31E
:10039000A5A7A8AAACAEAFB1B3B4B6B8B9BBBCBE42
:1003A000BFC1C2C3C5C6C7C9CACBCCCDCED0D1D2BE
:1003B000D2D3D4D5D6D7D7D8D9D9DADADBDBDBDCC0
:1003C000DCDCDCDCDDDDDDDDDCDCDCDCDCDBDBDB6C
:1003D000DADAD9D9D8D7D7D6D5D4D3D2D2D1D0CECC
:1003E000CDCCCBCAC9C7C6C5C3C2C1BFBEBCBBB9D1
:1003F000B8B6B4B3B1AFAEACAAA8A7A5A3A19F9E4F
:100400009C9A98969492908E8C8A89878583817F16
:100410007D7B79777573716F6D6B696866646260F7
:100420005E5C5A5957555351504E4C4A49474543C3
:1004300042403E3D3B3A3836353332302F2D2C2A60
:1004400029282625232205010902A1018502090187
:10045000A100050919012908150025019508750154
:1004600081020501093009311581257F9502750842
:10047000810609381581257F950175088106050CCF
:100480000A38021581257F950175088106C0C005CF
:10049000010980A101850319012AB700150126B7BA
:1004A00000950175108100C0050C0901A1018504AA
:1004B00019012AA002150126A002950175108100DC
:1004C000C005010906A101050719E029E715002566
:1004D00001950875018102950175088101050719CB
:1004E0000029FF150026FF00950675088100050804
:1004F0001901290515002501950575019102950140
:1005000075039101C009023B00020100A0FA090431
:100510000000010301010009211101000122440032
:100520000705810308000109040100010300000020
:10053000092111010001227B00070582032000012F
:10054000120100020000000810CB57120001010246
:10055000000122035100750065006600720065000D
:100560006E006300790020005200650076002E00C6
:100570002000310000000E034B00650065006200A2
:1005800069006F0000000403090411241FBECFEFAF
:10059000DAE0DEBFCDBF23E0A6ECB1E001C01D92E2
:1005A000A238B207E1F711E0A0E0B1E0E2E2F3E542
:1005B00002C005900D92A63CB107D9F70E94F22027
:1005C0000C943B290C940000482F20917E039091BD
:1005D000450357E0291302C080E0089530E0529FA0
:1005E000F001539FF00D1124EA5BFC4F81816813E9
:1005F00006C08081481303C085818111EECF2F5F33
:100600003F4F2770E7CFFC01AC014A5F5F4F8FEF90
:1006100091E32191822728E030E087FF09C0880F0D
:10062000892721503109C9F7E417F50791F7089593
:10063000880FF7CFE8EDF0E080818E7F8083109205
:10064000E2001092DA001092E100A0EEB0E08C918E
:1006500081608C9380818F77808319BCA7EDB0E097
:100660008C918E7F8C9380818F7E808310922E035D
:1006700008952091E4003091E50095E6A9012091CC
:10068000EC00822F817020FF06C08091E80080FF7F
:1006900006C080E008952091E80022FD1AC08091F4
:1006A0003B03882389F0853089F08091EB0085FD3C
:1006B0000FC02091E4003091E50042175307F9F292
:1006C0009150E1F684E0089582E0089583E0089572
:1006D00081E0089580913D0387FF13C08091E80079
:1006E00082FF06C08091E8008B778093E80004C009
:1006F00080913B038111F2CF089580913B038823C1
:10070000D9F38091E80080FFF8CF8091E8008E77E0
:10071000ECCF982F9093E900242F762F50E0891783
:1007200031F07091EC002091ED005091F00021FD2E
:1007300007C09F5F973071F78093E90081E00895CB
:100740003091EB003E7F3093EB003091ED003D7F28
:100750003093ED003091EB0031603093EB007093FB
:10076000EC002093ED005093F0002091EE0027FD67
:10077000E0CF80E00895B0E0A0E0E1ECF3E00C947D
:100780005527C8EDD0E088818F7E8883E7EDF0E0C3
:1007900080818160808384E082BF81E080932E032A
:1007A00088818E7F888302EE10E0F801108210921B
:1007B000DA0081EEC82ED12CF601108288818F7765
:1007C000888388818068888388818F7D888319BC2D
:1007D00010923B0310923C0310923A03109239039B
:1007E00090EEE92EF12CF70180818B7F8083888148
:1007F0008160888342E060E080E00E948903F60126
:1008000080818E7F8083F8018081816080838081F8
:1008100088608083F70180818E7F808388818061FA
:100820008883CDB7DEB7E8E00C947127FC01809196
:1008300043039091440386179707A0F06115710553
:1008400029F49091E8009E779093E80090E061157C
:10085000710551F4911108C08091E80082FF34C005
:1008600080E00895BC01F2CF80913B038823C1F161
:100870008530C1F18091E80083FD30C08091E800AF
:1008800082FDEACF8091E80080FFE1CF8091F30004
:100890002091F200382F6115710519F028303105CB
:1008A00058F091E02830310509F090E02091E800FF
:1008B0002E772093E800CBCF81918093F100615097
:1008C00071092F5F3F4FE7CF80913B03882341F0B1
:1008D000853041F08091E80083FFBECF81E008952C
:1008E00082E0089583E0089508950895809130038B
:1008F00008959C014FB7F89480912A0390912B039F
:10090000A0912C03B0912D034FBF821B930B089530
:100910002FB7F89460912A0370912B0380912C03D8
:1009200090912D032FBF08952FB7F89480912A033B
:1009300090912B03A0912C03B0912D032FBF08950C
:10094000EAECF1E09191891303C0DF0111971C9249
:1009500091E0E03DF907B1F70895AAECB1E0EFEFBF
:1009600090E02D91821751F0EF3F19F4211101C051
:10097000E92F9F5F9630A9F7EF3F09F408950E2EF7
:10098000000CFF0BE853FE4F82830895A3E0B0E014
:10099000ECECF4E00C945B272091270330912803C2
:1009A00028173907A1F09093280380932703E0913B
:1009B0002503F0912603309751F024E029839B838F
:1009C0008A830084F185E02DCE0101960995239656
:1009D000E2E00C947727A3E0B0E0E1EFF4E00C94C0
:1009E0005B27209123033091240328173907A1F0B6
:1009F0009093240380932303E0912503F091260331
:100A0000309751F023E029839B838A830084F1850A
:100A1000E02DCE01019609952396E2E00C9477270C
:100A200080912103882359F0E0912503F09126035A
:100A3000309729F00190F081E02D0995089580E02C
:100A400008950E9494049C0190911D0380911E03BF
:100A5000982B21F030931A032093190390911F03D0
:100A600080912003982B21F03093180320931703D3
:100A7000E0912503F0912603309749F082E08093BE
:100A80001B030680F781E02D8BE193E00995089523
:100A90008091160380FD16C081FD16C082FD16C030
:100AA000809115038823A1F0883280F428E0829F8A
:100AB000C001112468E270E00E94A227862F672BF4
:100AC00039F0089582E0089584E0089588E008955B
:100AD00081E008958091160380FD14C081FD14C04B
:100AE00082FD16C080911403882381F08E3180F43A
:100AF00020E5829FC00111246EE170E00E94A227D0
:100B0000862F089584E1089588E2089588E0089585
:100B100080E50895282F35EB2303C001112497FFAA
:100B200004C080589109892F089580589F4FFBCFAA
:100B3000FA01811101C0FB0109950895E6E8F2E090
:100B40001182828184608283089560914C0180913A
:100B50000C0380FF0CC070E080914B0123E0829F6A
:100B6000C001112484579D4F0E94F50D0895809176
:100B70004D0190914E0123E0829FF0011124E45732
:100B8000FD4F891740F71182108212828F5F3396D2
:100B9000F8CF90910C0390FF0EC090914D012091E1
:100BA0004E0133E0939FF0011124E457FD4F92175B
:100BB00018F00E94A50508958183608342839F5F9A
:100BC0003396F5CF80910C03982F9C7F29F4837086
:100BD000846080930C0308958C3AE8F38370886AEC
:100BE000F8CFAF92BF92DF92EF92FF920F931F93D5
:100BF000CF93DF93082F162FE901E42FF0E0EF5B8E
:100C0000FD4F611110C0E4915E2F4E2F4983E883A0
:100C10005A83DF91CF911F910F91FF90EF90DF905A
:100C2000BF90AF900895E62EF12C4491D42EE42F7E
:100C3000F0E026E0829FC00111242FEF30E0B901DF
:100C40000E948E27802F90E0880F991F55E5569FB0
:100C5000D001579FB00D11248A1B9B0B982F990F21
:100C6000890F5901AE18BF08AE9ED001AF9EB00DDE
:100C7000BE9EB00D11245B2F189F80011124012FFF
:100C800011275901A01AB10AAE9E8001AF9E100D26
:100C9000BE9E100D11245901A81AB108AE9CC001C6
:100CA000AF9C900DBE9C900D1124892F9927281B75
:100CB000390B2E9FC0012F9F900D3E9F900D112448
:100CC000E92F62307105A1F050F46115710509F446
:100CD0009DCF6130710581F0EB2F512F97CF64309C
:100CE000710569F080F06630710509F48FCFF4CF9B
:100CF000E42F4B2F592F8ACFE42F412F87CFEB2F93
:100D0000542F492F83CF4B2F5D2DE12F7FCFA3E0B1
:100D1000B0E0EDE8F6E00C945B2790910C0390FFB7
:100D20000AC09E012F5F3F4F0E94F1054B816981F0
:100D30008A810E94C9052396E2E00C947727CF931D
:100D4000DF93EC01ECE0F3E0438162818C810E944F
:100D500087068C818F5F8C83DF91CF910895CF932D
:100D6000DF93EC01EC81F0E0EA5BFC4F4491ECE0B6
:100D7000F3E0628181810E9487068C818F5F8C8382
:100D8000DF91CF9108950F931F93CF93DF93EC01E1
:100D900010E000E090914F019017110609F06CF4FB
:100DA0000E94A5058C8190E00196817099278C8323
:100DB000DF91CF911F910F91089520914D01A801CE
:100DC000420F511D9A01220F331F240F351F245744
:100DD0003D4F4C8160910E0380910D0396959017C5
:100DE000110651F04CF0442349F040910F030E944A
:100DF000F1050F5F1F4FCECF4423B9F340E0F7CF8B
:100E0000A3E0B0E0E6E0F7E00C9459278C01809174
:100E10008B0281110AC09E012F5F3F4F4FEF6FEF92
:100E20000E94F1058A8180938B02F8016481613010
:100E300069F080918B0240E0662361F040E062300F
:100E400011F440918B0280E060E004C060918B025D
:100E500040E080E00E94C905F801848190E001969D
:100E600063E070E00E94A22784832396E4E00C9460
:100E70007527B0E0A0E0EFE3F7E00C945127EC0118
:100E80004C81042F10E09801D8010E942C299B016D
:100E9000AC010E94F7284B015C01E0E2F0E0E01BAE
:100EA000F10BA5E5B0E0AC019B010E94F7286B01B6
:100EB0007C019F01DF010E94BC279B01AC010E94C5
:100EC00002299B01AC01280D391D4A1D5B1DC7017C
:100ED000B6010E940A29F22E822F90E039E23F15D6
:100EE00020F143E0249F9001112435952795122F7E
:100EF000109500E085E5E82EEF1880914F01081766
:100F000018F10E94A5059C8181E0992319F0903287
:100F100019F48FEF80934A0180914A01890F8C83E5
:100F2000CDB7DEB7ECE00C946D2725E530E0B901D4
:100F3000681B790B9B01220F331F260F371F37FFCA
:100F4000D4CF2F5F3F4FD1CF8E2D01FD8F2D20911C
:100F50004D01622F600F7727771F9B01220F331FF0
:100F6000260F371F24573D4F412F60910E030E94DB
:100F7000F1050F5FC2CFEF92FF920F931F93CF93B4
:100F8000DF93EC018C81811109C081E08C83109288
:100F90008A0292E0909349018093480180914D012B
:100FA00090914E0123E0829FF0011124E457FD4F00
:100FB000891758F110E003E060914F01161758F1BE
:100FC0000E94A5058091480120918A02280F209354
:100FD0008A0290914901980F90934901191654F48F
:100FE000022E000C330B40914F014150550B24173A
:100FF000350734F0819580934801813009F41C82D3
:10100000CDB7DEB7E6E00C9473271182108212820E
:101010008F5F3396CDCFE12EF12C70E0C7010E9497
:10102000A22720914D01820F482F50E020918A0283
:10103000022E000C330BE216F306BCF0209149019E
:10104000022E000C330B2E153F057CF0809F900183
:10105000112424573D4F40910F0360910E0380915E
:101060000D030E94F1051F5FA7CFFA01EE0FFF1FCE
:10107000E40FF51FE457FD4F118210821282F3CF67
:10108000B0E0A0E0E6E4F8E00C945227EC018A819D
:10109000BB24BA9480FD02C0BB24B394A0904F013E
:1010A0008C81811109C081E0B8121EC08FEF8A0DBA
:1010B0008093890281E08C83F12CE12CEA14B8F052
:1010C0000E94A5058091890291E0B91254C0811156
:1010D0004DC080914F018150809389021C82CDB711
:1010E000DEB7EBE00C946E2710928902E3CF0091FB
:1010F0004D010E0D1F2D111DC801880F991F080FDE
:10110000191F04571D4FF80111821082128234E01A
:10111000C32ED12C912C80918902890D813114F13B
:101120008F70082E000C990B8E159F0591F48091FD
:101130000F038C9DA0018D9D500D11245595479551
:1011400055954795980160910E0380910D030E947B
:10115000F1059B0CF1E0CF1AD108E9F68FEFE81A00
:10116000F80AACCF87FFDDCF8A0DDBCF81508093AB
:101170008902BC82B4CF90E0019660914F0170E08B
:101180000E94A227809389028C83A9CFEF92FF92BD
:101190001F93CF93DF93EC0110E0EE24EA94F12C3F
:1011A00060914F01161770F00E94A5059A818C81FD
:1011B00090FF27C08F5F8C83DF91CF911F91FF90AD
:1011C000EF90089520914D01422F410F5527551F53
:1011D000CA019A01220F331F280F391F24573D4F90
:1011E00070E0C7010E94A227962F8C8140910F03C7
:1011F00060910E03199F800D11240E94F1051F5F5D
:10120000CFCF8150D8CF80E00895F894E82FE295B1
:10121000EF70F0E031A1282F2F7081E090E001C045
:10122000880F2A95EAF7982F9095932391A392A17E
:10123000892B82A3789408950F931F9380912103A3
:10124000882329F00E9488041F910F9108950E941D
:10125000880400914A0210914B0220914C02309177
:101260004D02600F711F821F931FEECF80912103EB
:10127000882319F00E94940408950E941C09CB0150
:1012800008959091600292FF10C041E0282F2471D0
:10129000243009F040E031E0282F2871283009F08F
:1012A00030E0431711F02CE0822793FF10C041E09B
:1012B000282F2471243109F040E031E0282F2871D3
:1012C000283109F030E0431711F02CE082273091EB
:1012D000610230FF10C051E0282F2171213009F048
:1012E00050E041E0282F2871283009F040E05417E1
:1012F00011F029E0822731FF10C041E0282F217131
:10130000213109F040E031E0282F2871283109F01F
:1013100030E0431711F029E0822794FD877E08957D
:1013200082389105B9F1B0F48133910509F47DC09B
:1013300048F48932910509F46DC08A32910509F4A7
:101340007BC008958533910509F45FC08933910509
:1013500009F10895833E9105D9F138F4803E910555
:1013600029F1823E910579F10895863E9105D9F1E2
:10137000873E910509F43EC0843E910541F52091D8
:10138000610221FF24C08091600284FD19C087EEB4
:1013900090E0089520916002237009F05AC02091D6
:1013A000610223FF14C089E290E008952091600259
:1013B00020FD38C03091610230FF09C024FF43C0D6
:1013C00090E080E008952091600222FDF7CF08951B
:1013D0002091600222FD3AC03091610230FD39C097
:1013E00024FFF5CFEDCF2091600223FFF0CF24FD45
:1013F000E7CFCDCF2091600223FD2EC03091610256
:1014000031FFEECF84EE90E008952091600225FF39
:10141000DECFC9CF2091600225FD21C0209161025D
:1014200023FFD5CF89E390E0D2CF2091600226FF41
:10143000CECF8AE290E008952091600226FFC7CFC8
:1014400081E390E0089583EE90E0089582EE90E0CD
:10145000089580EE90E0089586EE90E0089585E38B
:1014600090E008957C30C8F46830B8F48230C0F45D
:10147000E72FF0E09CE0899FE00DF11D112483E04F
:10148000EE0FFF1F8A95E1F7E60FF11DEE0FFF1F2C
:10149000E455FF4F85919491089580E090E0089580
:1014A00081E0FCCF1F93CF93DF930E949009EC0162
:1014B000C11580E5D807F0F5C11580E4D80708F01C
:1014C0009CC0C03ED10520F5CD3CD10508F082C0BE
:1014D000C83AD10578F4C53AD10508F073C0C130D7
:1014E000D10519F1209709F1C430D105F0F4D0E00D
:1014F000C0E01BC0C33CD105D0F7C85AD0E0CC0F28
:10150000DD1FCE59DE4F0990D881C02DD4640DC0A7
:10151000C11580E2D80708F0D1C0C11581E0D80715
:1015200008F05AC0C83ED10510F7CE01DF91CF9127
:101530001F910895C03682E5D80718F5C03482E5BA
:10154000D80708F06BC0C03282E5D80708F05FC04A
:10155000C11582E5D80708F497C02C2F269526954B
:1015600080E2289F900111248C2F8370C1E0D0E08D
:1015700002C0CC0FDD1F8A95E2F7C22BD32BDD68AA
:10158000D4CFC03A82E5D80760F4C03882E5D807E6
:1015900008F459C0CF71D0E0DC2FCC27C46FD06ADB
:1015A000C4CFC03C82E5D80708F462C0C03E82E5E3
:1015B000D80708F09CCFDC2FCC27CC27DF71C06F79
:1015C000D06AB3CFC55AD0E0C15ADE4FC881D0E04F
:1015D000D064ABCFD065A9CF8D2F0E944109182FC1
:1015E000CE0199270E949009C12FD0E0DC2FCC2793
:1015F000CC27DF71C82BD92B98CFCE0199270E9419
:101600009009CC27DF70C82BD92BD06A8ECFCF7131
:10161000D0E0DC2FCC27C16FD06A87CF2C2F269546
:101620002695277080E2289F900111248C2F8370CB
:10163000C1E0D0E002C0CC0FDD1F8A95E2F7C22BDB
:10164000D32BDC6872CF2C2F26952695277080E24D
:10165000289F900111248C2F8370C1E0D0E002C03C
:10166000CC0FDD1F8A95E2F7C22BD32BDA685DCF52
:101670008C2F8F710E944109C82FD0E0DC2FCC271E
:10168000CC27DF71D06251CF8C2F8F710E9441091E
:1016900055E0D695C7955A95E1F7CF70D0E0DC2F8D
:1016A000CC27282F30E084FF05C044E0220F331FF1
:1016B0004A95E1F7C22BD32BD06937CF8D2F8F718D
:1016C0000E944109182FCE0199270E949009C12F2D
:1016D000D0E0DC2FCC27CC27DF71C82BD92BD2CF81
:1016E000809590911402982390931402089580910C
:1016F0007E0390914503981301C008958F5F877012
:10170000FACFB0E0A0E0E7E8FBE00C9454277C01BE
:1017100000915E0210915F0280915C0290915D02E7
:10172000082B192BCFE0D0E0CC24C394D12CBC2EB5
:10173000C6010C2E02C0880F991F0A94E2F780237D
:101740009123892B49F4219790F7B12C8B2DCDB79C
:10175000DEB7E9E00C947027B7018C2F0E94320AA3
:101760000E94520A019779F3F1CFCF93DF93EC01F6
:101770000E94810BBE010E94320A0E94520ADF9130
:10178000CF9108959C3070F5883060F528E0929FE5
:10179000F0011124E80FF11D6E2F677083E0F695BC
:1017A000E7958A95E1F7EE0FFF1FEE0FFF1FEE5250
:1017B000FE4F50E040E080E0219130E0062E02C074
:1017C000369527950A94E2F721703327042E01C03D
:1017D000220F0A94EAF7822B4F5F5F4F4430510586
:1017E00059F7089580E008959C3090F5883080F591
:1017F00028E0929FF0011124E80FF11D2E2F277091
:1018000041E001C0440F2A95EAF783E0F695E79599
:101810008A95E1F7EE0FFF1FEE0FFF1FEE52FE4F0E
:1018200030E020E070E05191DF011197CB01022EF2
:1018300002C0969587950A94E2F781708195852775
:10184000842385278C932F5F3F4F2430310559F730
:10185000089590935F0280935E02089521E030E046
:1018600002C0220F331F8A95E2F7209530958091B0
:101870005E0290915F02822393230E94290C0895B7
:10188000909109028095892380930902282F27705F
:1018900069F4891759F09091610292FF07C086950B
:1018A000869586950E942E0C10920902089521E0DB
:1018B00030E002C0220F331F8A95E2F780915E026A
:1018C00090915F02822B932B0E94290C0895909394
:1018D0005D0280935C020895FC0124812223C1F003
:1018E000808191810E94B50B92959F70963091F006
:1018F00058F4925F9F70923058F4803F19F030F4A2
:10190000883E30F481E008959A5FF4CF843FD1F3AC
:1019100080E00895883EB0F3813FD1F7F3CF409146
:101920001D0390911F0320912003662309F469C0D1
:10193000942B922B20911E03922B31F098E09093E0
:10194000140391E0909315038D3C41F40E946A05C5
:10195000819580931E030E94210508958E3C19F401
:101960000E946A05F6CF8F3C31F40E946A0581958A
:1019700080931D03F0CF803D19F40E946A05F8CFD3
:10198000893D29F40E94480580931F03E4CF8A3DD6
:1019900021F40E9448058195F7CF8B3D31F40E94D8
:1019A0004805819580932003D6CF8C3D19F40E9481
:1019B0004805F8CF9FE2980F983070F4815D990B3D
:1019C00021E030E001C0220F8A95EAF780911C03E4
:1019D000822B80931C03BFCF8D3D31F48091160381
:1019E000816080931603B7CF8E3D21F4809116035A
:1019F0008260F7CF8F3D09F0AECF809116038460EF
:101A0000F0CF8D3C59F480911E0387FF0DC01092DA
:101A10001E0341110BC01092140308C08E3C81F4C8
:101A200080911E0318169CF3442381F080911F03BC
:101A300090912003892B09F08ECF109215038BCF44
:101A40008F3C49F447FFF0CF10921D0380911E0395
:101A50008111ECCFE0CF803D19F41416ACF3E4CF44
:101A6000893D29F4191604F710921F03DDCF8A3D32
:101A700019F497FFD9CFF8CF8B3D29F427FFD4CFA6
:101A800010922003D1CF8C3D19F41216CCF3CCCF99
:101A90009FE2980F983090F4815D990B21E030E03F
:101AA000B90102C0660F771F8A95E2F7CB018095D6
:101AB00090911C03892380931C03B6CF8D3D31F494
:101AC000809116038E7F80931603AECF8E3D21F456
:101AD000809116038D7FF7CF8F3D09F0A5CF8091C0
:101AE00016038B7FF0CFA6E0B0E0E9E7FDE00C94B1
:101AF0005A2749835A8349815A819923A1F0222385
:101B000091F0CA010E94810B182F682F89819A8158
:101B10000E94F40B69817A81812F0E94320A2696F5
:101B2000E3E00C947627CA010E94C20B182FF2CF73
:101B30000F931F93CF93DF938B01EA0190913B03A7
:101B4000943061F58093E9008FEF9091E800815027
:101B500095FD06C095ED9A95F1F700008111F5CF3E
:101B60008091E80085FF1AC00E943903811111C0DD
:101B70008091E80085FD06C08091E8008E77809313
:101B8000E800F2CFF80181918F018093F100219755
:101B900079F78091E8008E778093E800DF91CF910C
:101BA0001F910F91089543E050E0BC0182E00E9434
:101BB000980D089546E050E0BC0182E00E94980D27
:101BC0000895CF93DF93EC0148E050E0BC0181E041
:101BD0000E94980D88E0FE01A1E3B3E001900D9210
:101BE0008A95E1F7DF91CF910895539A4BB1477FE2
:101BF0005BB15860EFB7F8949B01220F331F260F9B
:101C0000371F280F391F2817390741F4EFBF8FE519
:101C100094E00197F1F700C000000895DC016D9198
:101C2000CD0178E05BB9000000C067FF4BB9660FDB
:101C3000000000C000C000C04BB900C07A9591F709
:101C4000E2CFB0E0A0E0E7E2FEE00C9453277C0195
:101C50005B016A018091490201E010E08A3010F4D2
:101C60000AE010E0C1E0D0E0B501C701F601099536
:101C7000811104C021960C171D072CF4CDB7DEB7D7
:101C8000EAE00C946F27CC9F9001CD9F300D300D72
:101C9000112490E080E045E34A95F1F700000196B9
:101CA00082179307C1F7E0CFB0E0A0E0EAE5FEE0DD
:101CB0000C944D27FC016280448081E08483E6E43B
:101CC000F3E07490E5ECF3E0E491C0910F03C69566
:101CD000C158D0E0CC0FDD1FCD2FDD27812C75E062
:101CE000972EAA24AA94B12C55245A94E719EE2EC3
:101CF000F12C80914F01881638F00E94A505CDB7D0
:101D0000DEB7E0E10C946927C82CD12C82E086155F
:101D100068F09C9CF0019D9CF00D1124E454FD4F53
:101D200080910D03808380910E038183411023C035
:101D30009C9CF0019D9CF00D1124E454FD4F1382F6
:101D4000128220914D01C601820F911D9C01220F2C
:101D5000331F280F391F24573D4F9C9CF0019D9C39
:101D6000F00D1124E454FD4F4281618180810E9475
:101D7000F1058394BECF9C9C80019D9C100D112485
:101D800004541D4FF80183818823F1F0815083832F
:101D9000859DC0011124648170E00E948E27FB01A3
:101DA000FF27EA5BFC4F8491E82FE719E59DC0010E
:101DB0001124B7010E948E2780910F03689FB00104
:101DC0001124F8017283BDCF0E944D28B5010E94F5
:101DD000A2278C179D070CF0B4CFF2E0F61598F40B
:101DE0000E944D28B5010E94A227F80180830E941D
:101DF0004D2820910E032695622F70E00E94A227A5
:101E0000280FF80121839C9CF0019D9CF00D11246A
:101E1000E454FD4F128280910F03893C58F088EC06
:101E20009C9CF0019D9CF00D1124E454FD4F848393
:101E3000838387CF8431A0F784E1F2CF60910C03D4
:101E40006695669570E04BE050E08DE391E00E946E
:101E50005D28892B19F481E0809387020E9436095E
:101E600090938102809380028091880284608093A5
:101E700088020895B0E0A0E0E0E4FFE00C94512770
:101E800049015A016B017C010E94E2058401A40111
:101E90006A2D7B2D88E090E00E94B62894014A2D9F
:101EA0005B2DB601C70100E20E94E627622F84E2A3
:101EB00090E00E94A428CDB7DEB7ECE00C946D272B
:101EC000A3E0B0E0E6E6FFE00C945427082FE62EEE
:101ED000F42EC22E90910C0390FF41C020910D036F
:101EE000281308C080910E03861304C080910F034D
:101EF000841729F080918802826080938802E92FFC
:101F0000E695E695AE2FB0E0A656BE4F8C91809335
:101F100086029C7F943039F59E012F5F3F4F4F2DF5
:101F20006E2D802F0E94F1054B8169818A810E946C
:101F3000C90500930D03E0920E03F0920F03CC202D
:101F400071F020910C036091100370911103302FF8
:101F5000A70180911203909113030E943A0F2396D8
:101F6000E9E00C947027823019F4F0900F03E1CF70
:101F70008630A1F1893091F18931D9F6E9516E2F7E
:101F80006170B62EE695F0E0EF5BFC4F1491D12C1A
:101F900060914F01D61618F00E94A505CACFD19EB8
:101FA000C001112470E00E948E27802FB11014C050
:101FB000860F20914D01622F6D0D7727771F9B01B2
:101FC000220F331F260F371F24573D4F4F2D6E2DE5
:101FD0000E94F105D394DCCF861BEBCF022FA9CF53
:101FE000ECE0F3E0438121E1421B08F440E021E012
:101FF000628181810E94600F0895ECE0F3E04381EB
:1020000021E1420F08F44FEF21E0628181810E94BB
:10201000600F0895ECE0F3E0628121E1621B08F4B7
:1020200060E021E0438181810E94600F0895ECE02F
:10203000F3E0628121E1620F08F46FEF21E0438158
:1020400081810E94600F0895ECE0F3E0818121E03E
:102050004381628188500E94600F0895ECE0F3E0B4
:10206000818121E043816281885F0E94600F089531
:1020700080911003882319F08150809310032091E0
:102080000C0330910D0340910E0350910F036091AA
:1020900010037091110380911203909113030E9419
:1020A0003A0F089580911003833018F48F5F809366
:1020B000100320910C0330910D0340910E035091B9
:1020C0000F0360911003709111038091120390919E
:1020D00013030E943A0F089590910C0390FF3AC0A9
:1020E0009370811138C0946090930C0380918802A2
:1020F000816080938802662391F020910C033091D7
:102100000D0340910E0350910F03609110037091E5
:10211000110380911203909113030E943A0F609172
:102120000C036695669570E04BE050E08DE391E01E
:102130000E945D28892BB9F00E949E0581E0809362
:10214000830220E040910F0360910E0380910D0304
:102150000E94600F08958B3210F0986AC5CF880FE7
:10216000880F982BC1CF0E941E0FE8CF61E00E941C
:102170006C10089580910C0386958695815009F422
:102180008AE261E00E946C10089580910C038695AC
:1021900086958F5F8B3208F081E061E00E946C10C1
:1021A000089590910C0390FF09C096959695981705
:1021B00028F0961718F40E94C51008950E94B610D2
:1021C00008959091610292FB222720F9281779F057
:1021D00080FB92F9909361026091600270916102BC
:1021E00084E090E00E94C22882E00E94400C0895A2
:1021F000A4E0B0E0EEEFF0E10C945A2740912B02FE
:1022000050912C0260912D0270912E022FB7F894FC
:1022100080912A0390912B03A0912C03B0912D0360
:102220002FBF841B950BA60BB70B11E084369105CD
:10223000A105B10570F10E941C096E5F7F4F8F4FA1
:102240009F4F69837A838B839C8380911501909142
:102250001601815D9D4F4091140150E045305105BC
:1022600010F044E050E0BE016F5F7F4F0E9477287E
:1022700082E090E00E94D526182F882351F00E941A
:10228000880460932B0270932C0280932D0290930C
:102290002E02812F2496E3E00C947627ABE0B0E089
:1022A000E4E5F1E10C945B2788E0ECE0F3E0DE018B
:1022B000119601900D928A95E1F780918602909196
:1022C0008702A091880289879A87AB872B854091E6
:1022D00045025091460260914702709148023FB713
:1022E000F89480912A0390912B03A0912C03B09134
:1022F0002D033FBF841B950BA60BB70B84369105AE
:10230000A105B10510F4222319F180911D019091CE
:102310001E01815D9D4F40911C0150E04C305105E4
:1023200010F04BE050E0BE016F5F7F4F0E947728B6
:1023300083E090E00E94D526882369F00E948804FB
:10234000609345027093460280934702909348023F
:102350001092880281E02B96E2E00C947727EF92AE
:10236000FF921F93CF93DF9300D000D000D00F9245
:10237000CDB7DEB77B0190E080E00E94D526182F14
:10238000882309F46AC04091070150E041155105C6
:1023900011F041E050E06091080170910901615D28
:1023A0007D4FCE0107960E947728409127025091D9
:1023B00028026091290270912A022FB7F894809127
:1023C0002A0390912B03A0912C03B0912D032FBFD2
:1023D000841B950BA60BB70B84369105A105B1059F
:1023E00038F480E392E00E9403039F818917A9F1EA
:1023F00081E090E00E94D526882309F44EC04091E8
:102400000F0150E04730510510F046E050E0609178
:10241000100170911101615D7D4FCE0101960E9406
:10242000772880E392E00E9403039F81891335C0DF
:102430000E948804609327027093280280932902E7
:1024400090932A0286E0FE013196A1E2B2E001906B
:102450000D928A95E1F711E00BC086E0E0E3F2E02F
:10246000DE01119601900D928A95E1F71111EACFE4
:1024700086E0E1E2F2E0D70101900D928A95E1F762
:10248000812F27960FB6F894DEBF0FBECDBFDF9128
:10249000CF911F91FF90EF90089510E0E9CFA7E151
:1024A000B0E0E5E5F2E10C9450278E010F5F1F4F7D
:1024B0008CE0F80111928A95E9F78CE2C82E81E050
:1024C000D82EF12CE12CAA24A394B12C2CE2822E3C
:1024D00021E0922EF60181916F018F3F09F442C0F5
:1024E000F894E82FE295EF70F0E021A18F70A5013C
:1024F00002C0440F551F8A95E2F7CA01922F982B0C
:1025000091A392A18095892382A3789400C0E4E2EC
:10251000F1E0712C31E021912F3F09F495C0A22FF9
:10252000A295AF70B0E090968C9190E02F7002C0B1
:10253000959587952A95E2F780FD86C0832F782AA6
:10254000330F8E169F0639F7F601319780818F3F42
:1025500011F00E94050950EA5A95F1F7F801EE0DC5
:10256000FF1D70828FEFE81AF80AE6E0EE16F1041C
:1025700009F0B0CF4CE050E0B8018EE492E00E9448
:102580006A28009741F02CE0F801AEE4B2E0019037
:102590000D922A95E1F700915B0210E00D591D4F55
:1025A000892B09F453C081E0809319020E9494049E
:1025B0009093180280931702D12CC0902103CC2055
:1025C00009F49BC07E01FDE0EF0EF11C86E0F701EF
:1025D00011928A95E9F7809149028A3008F05AC031
:1025E0004FEA51E1B701C8010E94210E882309F486
:1025F00073C048EF50E1B701C8010E94210E882343
:1026000009F46AC04EE451E1B701C8010E94210EED
:10261000882309F461C01092490280915A0290E027
:1026200046E050E0B7018D599D4F0E946A2821E095
:1026300020932002892B09F042C0C12C8C2D8D29BA
:102640006796EDE00C946C2780E079CFD09019026A
:10265000DD2009F4B1CF80911702909118020E94F9
:102660007904059708F4A8CF46E050E06EE472E0E4
:10267000C8010E946A28892B59F086E0EEE4F2E056
:10268000D80101900D928A95E1F71092190295CF29
:10269000D12CFBCF80911A0290911B020E947904E9
:1026A000843F914008F09CCF80912002882329F23A
:1026B00086E0F70111928A95E9F710922002A09125
:1026C0005A02B0E0AD59BD4F86E0FE013D96019043
:1026D0000D928A95E1F7B2CF809149028F3F31F098
:1026E0008F5F809349028A3008F497CF0E94940448
:1026F00090931B0280931A02D7CF86E0F801A0E3E3
:10270000B2E001900D928A95E1F780E392E00E9499
:10271000030380932F028090360290903702A0909E
:102720003802B090390280911C0290911D02A09154
:102730001E02B0911F0288169906AA06BB06B1F0C8
:1027400080921C0290921D02A0921E02B0921F0263
:102750000E948804861A970AA80AB90A80924A0237
:1027600090924B02A0924C02B0924D028BE0EAE3B1
:10277000F2E0DE011D9601900D928A95E1F72D851C
:10278000822F86958695FE84EF84B8880E891F89EE
:1027900010924402112309F451CF10FF0AC0909106
:1027A0000C0320FF1AC0916090930C0360E00E941C
:1027B0006C1011FF06C020E04B2D6E2D8F2D0E9456
:1027C000600F12FF04C00023A9F00E941E0F13FF28
:1027D00035CF81E08093830231CF9E7F90930C03AD
:1027E0000E949E05809188028160809388020E94E9
:1027F000A505DFCF0E949E05EACF209114028091AB
:102800000B02282B80910A02882381F0282B30E0CC
:102810008AEC91E0FC014191CF0141113F5FF1E071
:10282000803D9F07B9F7311110920A022093C80129
:1028300048E050E06CE072E088EC91E00E946A2889
:10284000892BA9F088E0E8ECF1E0ACE0B2E001907F
:102850000D928A95E1F7E0912503F09126033097D8
:1028600031F00280F381E02D88EC91E00995089524
:10287000CF9310921402C6E0EAECF1E0DF018C2F56
:102880001D928A95E9F790E080E00E94EB0490E0C9
:1028900080E00E94C60410920B020E94FD13EBE13F
:1028A000F3E0DF011D92CA95E9F71092140310922C
:1028B0001503109216030E942105CF910895AAE2F4
:1028C000B0E0E5E6F4E10C945A278DE393E0209123
:1028D000F100FC012193CF01F3E085349F07B9F7A4
:1028E00080913E03833009F470C0B8F4813009F45C
:1028F00047C0823009F4B1C08091E80083FF7EC2F6
:1029000080913D0390913E039A3008F077C2E92F01
:10291000F0E0E35CF64D0C94B6278A3009F48CC0E5
:102920008B3009F46FC0893039F780913D038132D3
:1029300019F780914103909142030297E8F6809144
:10294000E800877F8093E8008091E80082FF38C02C
:102950009091F3008091F200029731F48091F100A0
:10296000813011F0863021F48091F10080933003A2
:102970008091E8008B778093E8000E946A03BCCFC7
:1029800080913D03813A09F0B7CF8091E800877FBD
:102990008093E8008091410390914203892B61F478
:1029A00068E081E393E070E00E9416048091E80003
:1029B0008B778093E800A0CF60E090E080E0F3CFD9
:1029C00080913B038111C0CF97CF80913D03813A25
:1029D00009F092CF8091410390914203892B09F035
:1029E0008BCF8091E800877F8093E8008091E8009A
:1029F00080FFFCCF809150018093F1008091E8002E
:102A00008E77B9CF80913D03813209F075CF8091E7
:102A1000410390914203892B09F06ECF8091E80029
:102A2000877F8093E8000E946A0380913F03809330
:102A300050010E94381460CF80913D03813209F02B
:102A40005BCF8091E800877F8093E8000E946A0353
:102A50008091400380932F034FCF80913D03813AB3
:102A600009F04ACF8091E800877F8093E800809149
:102A7000E80080FFFCCF80912F03BECF803899F013
:102A8000823809F0BBC1809141038F70873008F014
:102A9000B5C18093E9008091EB0085FB882780F920
:102AA0001092E90006C08091390390913A03911188
:102AB00082609091E800977F9093E8008093F10006
:102AC0001092F1008091E8008E7794C1882309F478
:102AD00082C1823009F092C180913F03811185C18A
:102AE000809141038F702FEF280F263008F086C1A8
:102AF0008093E9002091EB0020FF77C1933031F4FF
:102B00008091EB0080628093EB006FC19091EB00AD
:102B100090619093EB0021E030E001C0220F8A9594
:102B2000EAF72093EA001092EA008091EB008860B7
:102B3000EACF811163C110913F031F778091E300B9
:102B40008078812B8093E3008091E800877F8093D9
:102B5000E8000E946A038091E80080FFFCCF80912A
:102B6000E30080688093E30082E0111183E08093AA
:102B70003B0344C18058823008F040C180913F033C
:102B8000909140038C3D23E09207A1F583E08A8376
:102B90008AE289834FB7F894DE01139620E03EE085
:102BA00051E2E32FF0E050935700E49120FF03C07F
:102BB000E295EF703F5FEF708E2F90E0EA30C0F04B
:102BC000C7968D939D932F5F243159F74FBF809106
:102BD000E800877F8093E8006AE270E0CE0101960A
:102BE0000E9416048091E8008B778093E80006C16C
:102BF000C096E7CF4091410350914203292F3327DC
:102C00002330310509F444C078F52130310509F449
:102C10006FC08BE390E0E5E0F5E02230310509F08C
:102C2000EDC02091E800277F2093E8002091430326
:102C3000309144038217930708F49C0140E021156A
:102C4000310509F064C0411162C08091E80082FD45
:102C5000C9CF80913B03882329F2853019F28091F6
:102C6000E80083FFF2CFBECF21323105A9F1223235
:102C7000310509F0C3C04115510509F443C0413085
:102C8000510509F0BBC08BE790E0E6E4F4E0C9CF62
:102C9000992781309105C1F0009759F0029709F00A
:102CA000ADC0E2E5F5E0E4918E2F90E0E2E5F5E0DD
:102CB00007C0E6E8F5E0E4918E2F90E0E6E8F5E065
:102CC000009709F49BC0ADCFE6E7F5E0E4918E2FC5
:102CD00090E0E6E7F5E0F4CF4115510571F04130A1
:102CE000510509F08BC089E090E0E0E3F5E099CF71
:102CF00082E190E0E0E4F5E094CF89E090E0E7E164
:102D0000F5E08FCF84E490E0E1ECF4E08ACF8091AD
:102D10003B03882309F466CF853009F463CF8091A3
:102D2000E80083FD5FCF8091E80082FD8ECF809127
:102D3000E80080FF84CF9091F3008091F20021158C
:102D4000310519F08830910550F041E0089709F0FD
:102D500040E08091E8008E778093E80070CF449146
:102D60004093F1003196215031090196E8CF803827
:102D700009F044C08091E800877F8093E80080914B
:102D80003C038093F1009ECE811138C010913F0327
:102D90001230A0F58091E800877F8093E8001093BF
:102DA0003C030E946A03112311F084E005C0809166
:102DB000E30087FDFACF81E080933B0342E061ECC2
:102DC00081E00E94890342E261EC82E00E94890373
:102DD00080913B0313C080913F03813079F481E0FF
:102DE000933009F080E080933A031092E9008091DB
:102DF000E800877F8093E8000E946A038091E800E2
:102E000083FF0AC08091E800877F8093E80080916B
:102E1000EB0080628093EB00AA96E3E00C947627A7
:102E20000E9438142FEF84E39CE0215080409040B2
:102E3000E1F700C0000088E19AE00FB6F894A89589
:102E4000809360000FBE90936000FFCF882321F035
:102E50000E94700B0E94FD130895882339F0909111
:102E60001402982B909314020E94FD130895882356
:102E700009F456C0823879F40E94100581FF50C0D1
:102E800089E30E94AD040E94FD1389E30E94A0041F
:102E90000E94FD130895833859F40E94100580FFA5
:102EA0003FC083E50E94AD040E94FD1383E5EECF91
:102EB000843859F40E94100582FF32C087E40E94D2
:102EC000AD040E94FD1387E4E1CF9CEF980F913A87
:102ED000E8F290E2980F983050F4877091E001C0CA
:102EE000990F8A95EAF7892F0E94700BD1CF9BE545
:102EF000980F933028F490E080E00E94EB0408954E
:102F000098E5980F9B3128F490E080E00E94C60479
:102F1000089593E3980F933118F460E00E948F0CAA
:102F20000895CF93C82F8823C9F08238C9F40E942E
:102F3000100581FD13C089E30E94AD040E94FD13BA
:102F40002FEF87EE93E0215080409040E1F700C0E2
:102F5000000089E30E94A0040E94FD13CF91089510
:102F60008338A1F40E94100580FDF8CF83E50E940C
:102F7000AD040E94FD132FEF81EE94E021508040BC
:102F80009040E1F700C0000083E5E4CF8438A1F46D
:102F90000E94100582FDE2CF87E40E94AD040E94EA
:102FA000FD132FEF81EE94E0215080409040E1F737
:102FB00000C0000087E4CECF8CEF8C0F813A70F414
:102FC000EAECF1E080ED91E02191C217E1F18E177A
:102FD0009F07D1F78C2F0E94AD04BECF80E28C0FEB
:102FE000883068F4C77021E030E001C0220FCA9534
:102FF000EAF780911402822B80931402ADCFEBE5A7
:10300000EC0FE33040F4F0E0E15AFE4F808190E0B5
:103010000E94EB04A3CFE8E5EC0FEB3150F4F0E0B5
:10302000EE0FFF1FEE59FE4F808191810E94C60472
:1030300095CF83E38C0F833108F090CF61E08C2F24
:103040000E948F0C8BCF8C2F0E94A0040E94FD1336
:10305000C1CF0F931F93CF93DF93C62FD42F022F8F
:10306000FC0185818823A9F0609381030E94940468
:103070009093800380937F03C77081E001C0880F25
:10308000CA95EAF70E942D17DF91CF911F910F91FA
:10309000089580918103681335C080917F039091DA
:1030A00080030E947904883C910560F510E21D0FB1
:1030B000CD17B9F080E28C0F883040F4C77081E002
:1030C00001C0880FCA95EAF70E942617183048F405
:1030D00081E09D2F977001C0880F9A95EAF70E94B2
:1030E0002D17802F0E949117802F0E9437171830BC
:1030F00058F6D77081E001C0880FDA95EAF70E9490
:103100002617C2CFC77081E001C0880FCA95EAF7C1
:10311000F6CFB0E0A0E0EFE8F8E10C9453278C0183
:10312000FC018481882341F121E040815181628149
:10313000738195810E94730DEC01FC01E851FC47FD
:10314000E730F105A8F5E95BF64D0C94B62726E2C9
:1031500041EE61EEC8010E94291880910902877032
:1031600059F0F8018581882339F08091610282FF4E
:1031700003C082E00E94400CCDB7DEB7EAE00C94B9
:103180006F2727E245EE65EEE5CF26E241EE60EEE1
:10319000E1CF27E245EE64EEDDCF26E241EE62EEBE
:1031A000D9CF27E245EE66EED5CF28E241E0EBCF5E
:1031B000F8018581882309F402C410928103CE01AD
:1031C0009057839708F0E7C384E090E00E948E2830
:1031D0009093610280936002FE01E150F047E23279
:1031E000F10520F4E25BF64D0C94B6278091600265
:1031F00081608093600295C08091610288608093B5
:1032000061028FC0809160028260F3CF8091600282
:103210008460EFCF809160028860EBCF8091610283
:103220008160EDCF809161028260E9CF8091600280
:103230008061DFCF809160028062DBCF809160028D
:103240008064D7CF0E943814809160028068D1CF0B
:10325000809160028C60CDCF809161028360CFCF7E
:10326000809160028E7FC5CF80916102877FC7CF3A
:10327000809160028D7FBDCF809160028B7FB9CF3E
:1032800080916002877FB5CF809161028E7FB7CF3A
:10329000809161028D7FB3CF809160028F7EA9CF34
:1032A000809160028F7DA5CF809160028F7BA1CF3E
:1032B0000E943814809160028F779BCF80916002CA
:1032C000837F97CF809161028C7F99CF809160023C
:1032D00082FB992790F921E0922790FB82F990FBDD
:1032E00083F987CF80916102982F909591708E7F9E
:1032F000892B90FB81F983CF90916002892F8F7B7E
:1033000096FF806476CF0E94381490916002892FD6
:1033100097FB87F980586DCF61E08EE090E00E94C6
:10332000A428609160027091610284E090E00E94A4
:10333000C2280E94381411CF60E0EFCF9091600254
:10334000892F8F7E94FF806154CF90916002892FE6
:103350008E7F90FF81604DCF90916102892F877F92
:1033600093FF88604CCF85E325C385E331C320916B
:103370000C0320FF1DC02E7F20930C0330910D0302
:1033800040910E0350910F0360911003709111034F
:1033900080911203909113030E943A0F0E949E05A0
:1033A000809188028160809388020E94A505D5CE15
:1033B000822F816080930C03869586950E94B610BB
:1033C000CCCE4AEB50E165EC70E10E949805C5CE89
:1033D00045EC50E16AEB70E1F8CF44E250E16EE277
:1033E00070E1F3CF4EE250E164E270E1EECF4AE0EB
:1033F00050E167E170E1E9CF47E150E16AE070E157
:10340000E4CF40EF5FE06DEF7FE0DFCF4DEF5FE0B7
:1034100060EF7FE0DACF48E350E162E570E1D5CFBD
:1034200042E550E168E370E1D0CF81E0C7CF65E0CD
:1034300082E00E94D11091CE68E086E0FACF6EE083
:1034400089E0F7CF64E18FE0F4CF67E185E1F1CF68
:1034500088E1B4CF62E289E1ECCF83E2AFCF6AE2E8
:1034600085E2E7CF0E943814FFEF24E33CE0F150FF
:1034700020403040E1F700C0000087E797E79093D5
:1034800001088093000888E19AE00FB6F894A895A7
:10349000809360000FBE90936000FFCF6FEF7FEFCF
:1034A00090E080E00E94C2280E9410178091610283
:1034B00082FB882780F991E089270E94E110F801BA
:1034C0008581C081D181882309F44DC0CE010E943D
:1034D000810BF82E682FCE010E94F40BBE018F2DB8
:1034E0000E94320A0E94520AD82FC92FA82EF80132
:1034F000C580B680B2943FE0B32280910902877004
:1035000009F1EC2CCC20F9F0892F807F803469F010
:1035100080E28D0F8830B0F0892F807E803229F4D0
:10352000F1E0FD1778F4BB2069F08091610282FF21
:1035300009C082E00E94400C809109028770EE244D
:10354000E3948111E12CDC2ED2942FE0D2222BE0E7
:103550002D1508F46DC0ED2DF0E0E059F64D0C94FA
:10356000B62780E0AACFCE010E94C20BF82EB6CFBC
:103570003C2F3F70F32EC07F19F0F29490EFF922A8
:10358000CC20B9F0FF2069F080E28D0F883010F078
:10359000A11009C080911402F82AF09214020E942E
:1035A000FD138D2F43C080910B02F82AF0920B027D
:1035B000F6CF8D2F0E943717FF20D1F1D05ED83083
:1035C00010F0A11004C08F2D0E94700B06C0F09463
:1035D00080910B02F822F0920B020E94FD1328C08A
:1035E0008C2F8F70F82EC07FC03219F0F29480EFCC
:1035F000F822AA2059F091E0A91609F479C0CC204C
:1036000009F485C0BB2009F447C0CBCF809161028B
:1036100082FD3EC0CC20B1F1FF2039F08091140230
:10362000F82AF09214020E94FD1380E00E94911784
:103630002D2D2850330B2430310510F40E94100535
:10364000EE20A9F08091090280FD11C0F8011582D9
:103650008695869586950E94570CC8010E94891808
:10366000809109028695869586950E942E0C20E011
:10367000F8014081518162817381848195810E942A
:10368000730D7ACD80E00E943717FF2089F29BCF1F
:10369000CC20A1F0B11004C08F2D0E942D17C8CFEF
:1036A000E1E0BE12C5CF80910A029F2D9823F91642
:1036B00009F4BECFF82AF0920A02BACFB110B8CFFF
:1036C0008F2D0E94261790910A028F2D892329F0B1
:1036D0008F2D8095892380930A028091D1019F2D9F
:1036E000982309F4A5CFF094F822F092D101A0CF4D
:1036F000CC2029F0F5E0FB1508F49ACFCDCF24E0DB
:103700002B1508F495CF8F2D0E94261791CFBB2043
:10371000D1F339E3A31209C08FEF97EEE3E08150B4
:103720009040E040E1F700C000008D2F0E94371765
:103730007FCF8C2F86958695837069F0813009F054
:1037400077CF8D2F9C2F9370C11002C080E090E046
:103750000E94C6046DCF8D2F9C2F9370C11002C0A4
:1037600080E090E00E94EB0463CF6C2D8D2F0E94CF
:103770008F0C5ECF8C2F837009F03FC0C11058CFE3
:103780004D2F429546954770440F440F2D2F2F70B3
:1037900030E0042E02C0220F331F0A94E2F790E0BB
:1037A00080E0D4FF09C08FE090E002C0880F991F2D
:1037B0004A95E2F780959095C695C695C370C2303C
:1037C00099F078F440915C0250915D02C13039F07B
:1037D000822B932B842395230E94670C29CF242BC3
:1037E000352B822B932BF8CF822B932B20915C02CD
:1037F00030915D0282279327EFCF8695CC2011F080
:103800008C2F8170882309F413CF4D2F4295469554
:103810004770440F440F2D2F2F7030E0042E02C04C
:10382000220F331F0A94E2F790E080E0D4FF09C032
:103830008FE090E002C0880F991F4A95E2F78095CB
:103840009095C695C695C370C23099F078F44091B2
:103850005E0250915F02C13039F0822B932B84239A
:1038600095230E94290CE4CE242B352B822B932BFD
:10387000F8CF822B932B20915E0230915F0282273A
:103880009327EFCFCF70CC2029F08C2F0E94570CBC
:103890008D2F03CF8D2F0E9426178C2F0E942E0C68
:1038A000C7CE8D2FF2EFAF1699F1FA1570F020EF19
:1038B000A216D1F031EFA31691F0CC2009F45BC031
:1038C000B1106FCE8C2F8F7127C093EFA91639F1ED
:1038D000E4EFAE12F2CF8091610282FD2EC08C2FF8
:1038E0008F71CC20D9F218C0CC2069F0F4E0FB1520
:1038F00008F49ECECF7181E090E002C0880F991F3E
:10390000CA95E2F7B8CF25E02B1508F491CEF2CF97
:103910008C2F8F71C110C2CF0E94570C89CE90E0BE
:1039200080E0CC2009F49DCFCF7181E090E002C00F
:10393000880F991FCA95E2F794CFCC2089F0CF71F8
:103940008C2F0E94570C8091610282FF07C038E0E3
:10395000C39FC00111248360809309028C2FDCCFA8
:1039600081E00E94400C81E08B1508F061CE82E07E
:103970000E94400C5DCEBB2059F0893309F0D5CEB2
:103980009FEFE7EEF3E09150E040F040E1F7CBCE5F
:103990008C2F8F7183CFC631FCE7DF07E1F4809174
:1039A00014028A7A91E009F490E09093D001811199
:1039B000DACC89E20E94AD040E94FD13CECBC63161
:1039C0002CE7D20741F58091D0018111CECC89E25C
:1039D0000E94A004F1CFC3303CE7D30709F45ECDC9
:1039E00050F4C1159CE7D90709F43CCDC130DC4740
:1039F00009F45ACD64CDCB35FCE7DF0709F4B1CD2E
:103A0000CC352CE7D20709F451CDCA35DC4709F093
:103A100056CD81E052CD809114028272FE01E052B7
:103A2000F847E531F10508F04ACDE458F64D0C941D
:103A3000B627CF93DF9380910802807F09F04DC0B5
:103A400080910702882309F448C0E0917E035091D9
:103A50004503C0910302D09102026091040270916B
:103A6000050247E05E17C9F18E2F90E0E49FF00158
:103A70001124EA5BFC4F2481222391F1489FF0013D
:103A8000499FF00D1124DF01AA5BBC4F11962C91C8
:103A900011972C1325C02C912D1322C015962C9113
:103AA000159721111DC012962D913C91261B370BA5
:103AB000283C3105A8F4809108028F7080618093C2
:103AC0000802E45BFC4F80818F708061808382E01C
:103AD00092E00E9489180E94770BDF91CF910895A0
:103AE000FC013196E770BECFA4E1B0E0EAE7FDE16A
:103AF0000C9451278C0186E0F801DE011F9601909D
:103B00000D928A95E1F7F8018481E58092E0A92E73
:103B100092E0B92E90910602911128C0882319F1E4
:103B2000EE20F1F0C8010E946C0CF82E8823C1F041
:103B300087E0F801D50101900D928A95E1F7809117
:103B40000602813031F480910202909103020E94BA
:103B5000B50B0E94191D8F2D6496ECE00C946D2717
:103B6000C8010E948918FF24F394F5CFD080C1804A
:103B700082809380F0900702209104023091050228
:103B8000A401421B530BFF2009F4D9C0483C510546
:103B900008F092C08823F9F2909103028091080204
:103BA000282F207F09F056C0C91214C0909102023C
:103BB000D91210C0E11048C08F7080618093080254
:103BC00082E092E00E94891880910802F8018683C1
:103BD000F12CC1CFE11038C06C2D8D2D0E94E40274
:103BE0006C2D8D2D0E94E402E82E8111F1CFDF862D
:103BF000C88A8F8598890E94B50B292F22952F702E
:103C0000243058F49F70223088F0992399F0F801FD
:103C10009681907F79F4FE2C9ECF2A5F2F70223000
:103C200068F0C8010E948918EF2CF5CF992311F094
:103C3000882389F3805E883070F3F3CF803F58F398
:103C4000815F833070F7E7CF8091080281608093B5
:103C50000802BECFC91207C090910202D91203C058
:103C6000EE2009F48DC0C8010E946C0C882309F471
:103C700077CFEE2009F474CF80910802803288F06B
:103C80002091020230910302398728879B868A8619
:103C9000909106029C871D868E87CE0108960E9411
:103CA000891887E0F801A2E0B2E001900D928A95B0
:103CB000E1F70E94191D57CF90910802292F207F0C
:103CC00051F482E092E00E94891887E0F501119298
:103CD0008A95E9F77DCF882309F43DCF80910302CF
:103CE0008C1110C080910202D8120CC0E1100AC0E1
:103CF0009683C8010E94891887E0F50111928A9580
:103D0000E9F729CFC8010E946C0C882309F428CF59
:103D1000EE2009F425CF80910802803210F2209124
:103D20000202309103023A8329839C828B82909114
:103D300006029D831E828F83CE010196B0CF483C40
:103D40005105D0F6882309F40ECFFE2CEE2009F49D
:103D500007CF809103028C1120C080910202D812FB
:103D60001CC08091080280FD0FC0982F907F61F0E9
:103D70008683903F31F0982F907F905F8F70892BD2
:103D80008683C8010E94891887E0F801A2E0B2E0AA
:103D900001900D928A95E1F7DECEC8010E946C0C6D
:103DA00081117FCF80910802816080930802C80151
:103DB0000E948918D0CEABE1B0E0E1EEFEE10C94B8
:103DC00059274E8B5F8B688F798F8A8F9B8F192F26
:103DD000911110920B021D8A86E0FE017696DE019B
:103DE0001F9601900D928A95E1F70A8D002341F00C
:103DF00021E04F85588969897A89C8010E94730D2D
:103E00000B8B1C8B87E0FE013F96DE01189601901C
:103E10000D928A95E1F7CE0108960E94741D8111DA
:103E20002AC087E0FE013896DE01119601900D92BE
:103E30008A95E1F78C858823F1F02091450330E0E5
:103E4000C90101968770992740917E03481719068A
:103E5000E9F097E0929FD001939FB00D1124AA5BE7
:103E6000BC4FFE01319601900D929A95E1F7809337
:103E700045030E94770B17E080917E0390914503E4
:103E8000891312C06B96E4E00C9475270E943814D5
:103E90001092450310927E0387E0E2E0F2E0DF013A
:103EA0001D928A95E9F7E7CF819FC00111248A5BB3
:103EB0009C4F0E94741D882329F380917E0390E01B
:103EC00001968770992780937E03D6CFA6E0B0E055
:103ED000ECE6FFE10C9459270E9494048C01809138
:103EE0001502909116028017910781F019821A82AB
:103EF0000E949404682F49815A81792F80E090E0D4
:103F00000E94DB1E10931602009315022696E4E031
:103F10000C9475271F920F920FB60F9211242F93B6
:103F20003F934F935F936F937F938F939F93AF9341
:103F3000BF93CF93DF93EF93FF93D091E900DF70AE
:103F40008091EC00C82FC17080FDC0E81092E9009C
:103F50008091F000877F8093F00078940E945F1436
:103F60001092E9008091F00088608093F000CD2BE2
:103F7000CF70C093E900FF91EF91DF91CF91BF9196
:103F8000AF919F918F917F916F915F914F913F91F1
:103F90002F910F900FBE0F901F9018951F920F92A8
:103FA0000FB60F9211242F933F934F935F936F930C
:103FB0007F938F939F93AF93BF93EF93FF938091E2
:103FC000E10082FF09C08091E20082FF05C080917C
:103FD000E1008B7F8093E1008091DA0080FF24C0B4
:103FE0008091D80080FF20C08091DA008E7F80937E
:103FF000DA008091D90080FF9DC080E189BD82E117
:1040000089BD09B400FEFDCF81E080933B03809120
:104010002E03811109C00E941A030E94BB038091E4
:10402000E20084608093E2008091E10080FF17C08D
:104030008091E20080FF13C08091E2008E7F809328
:10404000E2008091E20080618093E2008091D800DC
:1040500080628093D80019BC85E080933B038091F7
:10406000E10084FF2BC08091E20084FF27C080E143
:1040700089BD82E189BD89B5982F917080FFFBCF02
:104080008091D8008F7D8093D8008091E1008F7E51
:104090008093E1008091E2008F7E8093E200809126
:1040A000E20081608093E20080913C03882309F460
:1040B00047C084E080933B0380913B038091E10003
:1040C00083FF27C08091E20083FF23C08091E1003D
:1040D000877F8093E10082E080933B0310923C0352
:1040E0008091E1008E7F8093E1008091E2008E7FDD
:1040F0008093E2008091E20080618093E20042E0E0
:1041000060E080E00E9489038091F00088608093E5
:10411000F000FF91EF91BF91AF919F918F917F91AF
:104120006F915F914F913F912F910F900FBE0F9024
:104130001F90189519BC10923B0310922E0374CF58
:104140008091E30087FD93E090933B03B5CF789493
:104150001F921FB61F9211248F939F93AF93BF930B
:1041600080912A0390912B03A0912C03B0912D03F1
:104170000196A11DB11D80932A0390932B03A09358
:104180002C03B0932D03BF91AF919F918F911F90FE
:104190001FBE1F9018951F921FB61F9211248F9358
:1041A0009F93AF93BF9380912903811113C0809196
:1041B0002A0390912B03A0912C03B0912D034196DB
:1041C000A11DB11D80932A0390932B03A0932C0370
:1041D000B0932D03BF91AF919F918F911F901FBE00
:1041E0001F901895CDB7DEB72E970FB6F894DEBFA7
:1041F0000FBECDBF85B7806885BF85B7806885BF96
:1042000084B7877F84BF0FB6F894A895809160002B
:10421000886180936000109260000FBE80E890E09B
:104220000FB6F89480936100909361000FBE83E015
:1042300099E09093C7018093C6010E941A030E94DF
:10424000BB038091E20084608093E20078948091C7
:104250003B038823A1F01091E9001F709091EC00BE
:10426000892F817090FD80E8182B1092E9008091D1
:10427000E80083FD0E945F141F701093E90082E044
:1042800084BD93E095BD9AEF97BD80936E00109228
:104290004A0210924B0210924C0210924D028091F1
:1042A000D80080618093D8002AE12A95F1F700C0F8
:1042B0008091D900182F117080FD04C00E941A034C
:1042C00010923B031093210352985A988FE891E083
:1042D0000197F1F700C0000099B1292F247092FBDB
:1042E000882780F98093220380933201222309F4E6
:1042F000EDC110924B0188E080934C018091210325
:1043000081110E94E92580913201811127C086E048
:10431000E1E5F1E0DE01199601900D928A95E1F751
:10432000FE013996ACE2B1E0CE010F969F014191BA
:104330004D938E179F07D9F788E0E7E5F1E0DE019E
:10434000119601900D928A95E1F7FE013196A4E253
:10435000B1E081918D932E173F07D9F780913201FB
:1043600096E0811190E090935B0286E0891B809338
:104370005A020CE211E082E3E82E81E0F82ED80127
:104380008D918D018F3F11F00E940509E016F10615
:10439000B1F704E211E0F80181918F018F3F11F034
:1043A0000E940509F1E00C321F07A9F78CE0E3E653
:1043B000F2E0DF01282F1D922A95E9F7EEE4F2E002
:1043C000DF011D928A95E9F790E080E00E948E2837
:1043D000863E9E4F09F478C066EE7EEF90E080E066
:1043E0000E94C22860E082E090E00E94A42881E060
:1043F00090E090935D0280935C0261E083E090E046
:104400000E94A42860E074E184E090E00E94C22849
:1044100060E086E090E00E94A42860E087E090E001
:104420000E94A42840E050E0BA0188E090E00E9499
:10443000B62860E084E290E00E94A42860E087E172
:1044400090E00E94A42860E08CE090E00E94A42804
:1044500060E08DE090E00E94A42819821A821B82FD
:104460001C821D821E821F82188648E050E068E18F
:1044700070E0CE0101960E94942840E050E0BA011D
:1044800080E290E00E94B62880910C0381608093C6
:104490000C03869586950E94B61021E04FEF6FEFD2
:1044A00080E00E94600F8BE00E94B61040E050E078
:1044B000BA018FE090E00E94B62840E050E0BA01D7
:1044C00083E190E00E94B62882E090E00E9480287C
:1044D00080936F0284E090E00E948E2890936102A6
:1044E0008093600283E090E00E94802890E00E9428
:1044F000670C80916202811183C088E090E00E9485
:1045000088284B015C0184E290E00E948028282FDB
:1045100030E040E050E060E070E080E090E000E2F9
:104520000E94CB27282939294A295B2920930C038B
:1045300030930D0340930E0350930F0360931003C9
:1045400070931103809312039093130330918802A8
:104550003360309388022C7F09F042C025E020931D
:104560000C0310920D032FEF20930E0320930F03E3
:104570001092100325E030E04FEF5FEF60E00E9403
:104580003A0F88E090E00E9488286B017C0184E269
:1045900090E00E948028282F30E040E050E060E06A
:1045A00070E080E090E00E94CB27B22FA32FF42F81
:1045B000E52F5B0197018601BC29A12BFE29E32B86
:1045C000B0930C03A0930D03F0930E03E0930F033D
:1045D00060931003B092110380931203909313031E
:1045E0000E94E2050E949E0580910C0380FF05C099
:1045F00060E0869586950E946C1081E0809362024F
:1046000080912103811102C00E94EC2583E391E097
:10461000909326038093250318E1E12EF12C00E40A
:10462000C02EDD24D39480913B0300E112E185305C
:1046300009F484C00E944F12A0E7AA2EA2E0BA2E6D
:10464000B3E68B2EB2E09B2ED401F50191918D91B2
:1046500042E0EC37F40709F47BC09817B9F35090A7
:10466000210310E0D4010D914D01F50181915F010D
:10467000801731F1712C66246394482E4026842DD6
:104680008621B1F05520A1F079861A870E94940402
:104690009C878B87DD8691E0802F862109F490E04E
:1046A0009E8749855A856B857C858D850E94DB1E9A
:1046B0007394660CF8E07F12E2CFF5013197008326
:1046C0001F5F1C3079F60E941C0946C088E0809369
:1046D0004B0112CE80913B03843009F110922903E3
:1046E0000FB6F894A895E09260000FBEC0926000EB
:1046F00083B7817F846083BF83B7816083BF7894F1
:10470000889583B78E7F83BF0FB6F894A895809164
:104710006000886180936000109260000FBE8091FD
:104720003A03882359F00E944F12E3E6F2E08191A8
:104730008111D2C122E0EF36F207C9F780913B0325
:10474000853009F4C7CF0E9438140E94100572CF3B
:10475000981385CF0E94661F80918702882309F4F1
:1047600064C080918602E0910C03E695E695E81B13
:10477000E0938202823009F037C1F0E0E35CFD4F44
:10478000E4910E2F10E0FFEAAF2EF6E0BF2E8091ED
:104790008302882361F0109283020E94360990936D
:1047A00081028093800210928502109284020E94FE
:1047B0003609E0918002F09181029C012E1B3F0B93
:1047C0002F3F3F4790F520917E022223B1F01092B7
:1047D0007E0220917C0230917D02821B930B8F3FE1
:1047E0009F4758F4205D3A4830937D0220937C0225
:1047F00080918802886080938802809084029090E3
:104800008502E00FF11FF0938102E093800280E8BF
:1048100092E0F50109958091840290918502892B9F
:1048200021F4892811F0D0927E0286E0EBE1F3E0DA
:10483000DE01119601900D928A95E1F790901C038C
:1048400000911D03B0901E03A0901F031091200340
:1048500010921D0310921E0310921F03109220034A
:10486000802F8B2909F445C08091190390911A0378
:104870000E9479049C0190911403992309F44CC17E
:1048800025313105B0F19F3F19F09F5F90931403DC
:10489000002359F00E946A059FEF10160CF491E076
:1048A000899F802D112480931D03BB2059F00E9405
:1048B0006A0591E01B140CF09FEF899F802D112455
:1048C00080931E0380911D03882399F080901E031E
:1048D000882079F00E948A05882309F4F1C080932A
:1048E0001D03882D0E948A05882309F4ECC080935B
:1048F0001E03812F8A2909F445C0809117039091E6
:1049000018030E9479049C0190911503992309F4DE
:10491000FEC021353105B0F19F3F19F09F5F9093A4
:104920001503AA2059F00E9448059FEF1A140CF4B1
:1049300091E0899F802D112480931F03112359F04A
:104940000E94480591E011160CF09FEF899F802D81
:1049500011248093200380911F03882399F0A09055
:104960002003AA2079F00E948A05882309F4AEC0AA
:1049700080931F038A2D0E948A05882309F4A9C009
:104980008093200380911C03891117C080911D031F
:10499000882311F0081311C020911E03222311F067
:1049A000B2120BC090912003992311F0191305C086
:1049B00030911F03332309F4A5C00E94210586E02E
:1049C000FE013196ABE1B3E001900D928A95E1F7DB
:1049D0000E94100590917F02891709F424CE8093DC
:1049E0007F020E9488041FCE863059F4F0E0E65C16
:1049F000FD4FE4910E2F10E0EFE9AE2EE6E0BE2E63
:104A0000C6CE893061F4E695F0E0E95CFD4FE491B3
:104A10000E2F10E076ECA72E78E0B72EB8CE8F30B0
:104A200061F4E695F0E0EC5CFD4FE4910E2F10E0B0
:104A300060E4A62E68E0B62EAACE853159F4F0E0E7
:104A4000EF5CFD4FE4910E2F10E05BEBA52E57E0DD
:104A5000B52E9DCE08E210E029E3A22E27E0B22E6B
:104A6000883109F494CE833249F4EFE2F2E0059103
:104A7000149140E0A42E47E0B42E89CE04EF11E05B
:104A800093ECA92E96E0B92E843209F480CE8532BB
:104A900081F48E2F63E00E948227E92FF0E0E45D2D
:104AA000FD4FE4910E2F10E034E5A32E3EE0B32E2F
:104AB0006ECE00ED17E084E7A82E84E0B82E67CE16
:104AC000D0921D030ECFD0921E0313CFD0921F039E
:104AD00051CFD092200356CF09BD19BD09B400FEB5
:104AE000FDCF8091D8008F7D8093D8008091E00029
:104AF00082608093E0008091E00081FDFCCF0E9405
:104B000038141CCE822B892B09F459CF56CF2B3069
:104B1000310508F003CF36CF2B30310508F0B5CE84
:104B2000E8CE8EE1489B02C08150E1F7489BFECF62
:104B30000895589880E28A95F1F7589A0895FC01F3
:104B40003BE03A95F1F798E020E080E031E040E189
:104B50004A95F1F7880F489B02C08160232742E005
:104B60004A95F1F7000040E14A95F1F7915079F745
:104B700090E19A95F1F799B132E03A95F1F700009A
:104B800040E14A95F1F7917092272081920F90832E
:104B90000895A1E0B0E0EFECF5E20C9457271982FC
:104BA0008C017C01E60EF11C0E151F0541F481E01D
:104BB0009981911180E02196E6E00C9473270E9480
:104BC0009125CE0101960E949F25F80181938F01C6
:104BD000EBCF509A589A08955098589AE89AE9E677
:104BE000F0E080818C7F808308956150770B91E0A5
:104BF00001C0990F6A95EAF720E031E0911108C0F1
:104C0000222391F0589A80E28A95F1F758980895F6
:104C1000492F482339F0589A232740E24A95F1F763
:104C20009695ECCF5898F9CF5898EDCFFF920F9307
:104C30001F93CF93DF93EC018C01060F111DC0175A
:104C4000D10729F4CDB7DEB7E5E00C947427F990CD
:104C50000E94992568E08F2D0E94F525F0CF1F92C4
:104C60000F920FB60F9211240F931F932F933F9320
:104C70004F935F936F937F938F939F93AF93BF9364
:104C8000EF93FF93CF93DF930F92CDB7DEB71982E7
:104C90000E949125CE0101960E949F25082F06951E
:104CA00006950695282F22952570902F9570290F2F
:104CB000922F937026952695920F98279770898149
:104CC000982B09F05CC0053008F059C080E18A9546
:104CD000F1F7589A509A82E08A95F1F700C05898F7
:104CE00088E0089F80011124D801AC5FBE4F169662
:104CF000ED91FC9117973097A9F060919801709110
:104D0000990114962D913C911597260F371F1196F6
:104D10008D919C911297680F791F13964C91139760
:104D20008C910995F801EC5FFE4F6381662351F089
:104D3000209198013091990184819581820F931F70
:104D40000E9416260E94992580E18A95F1F75898CD
:104D50005098589A80E18A95F1F7F801EC5FFE4F80
:104D60006081662351F020919801309199018181F1
:104D70009281820F931F0E94C9250E9491250F9056
:104D8000DF91CF91FF91EF91BF91AF919F918F9163
:104D90007F916F915F914F913F912F911F910F9153
:104DA0000F900FBE0F901F9018950F931F93CF93E6
:104DB000DF93EC0105970CF04CC0F894509A58988A
:104DC00085E08A95F1F700009C2F969595708C2FC1
:104DD0008570980F892F83709695969523E0CC0F58
:104DE000DD1F2A95E1F7980F8E01092B0E94992566
:104DF00000C068E0802F0E94F52580E18A95F1F7D8
:104E00005098589A489B1EC087E090E048991CC073
:104E1000FE01EC5FFE4F63816623F9F0209198015B
:104E20003091990184819581820F931F0E94C92539
:104E3000811113C0509A589A7894DF91CF911F91A5
:104E40000F91089500C0DECF019729F4509A589A27
:104E5000789480E0F2CF00C0D9CF0E94912580E203
:104E60008A95F1F75898509A80E18A95F1F7CC5FCE
:104E7000DE4F6881662351F02091980130919901AD
:104E800089819A81820F931F0E9416260E9499257C
:104E9000789481E0D2CF2F923F924F925F926F929F
:104EA0007F928F929F92AF92BF92CF92DF92EF92BA
:104EB000FF920F931F93CF93DF93CDB7DEB7CA1B3B
:104EC000DB0B0FB6F894DEBF0FBECDBF09942A8866
:104ED000398848885F846E847D848C849B84AA840E
:104EE000B984C884DF80EE80FD800C811B81AA819B
:104EF000B981CE0FD11D0FB6F894DEBF0FBECDBF66
:104F0000ED010895991B79E004C0991F961708F0E8
:104F1000961B881F7A95C9F780950895AA1BBB1B1D
:104F200051E107C0AA1FBB1FA617B70710F0A61BA9
:104F3000B70B881F991F5A95A9F780959095BC01CA
:104F4000CD01089597FB072E16F4009407D077FD46
:104F500009D00E948E2707FC05D03EF490958195DC
:104F60009F4F0895709561957F4F0895EE0FFF1F35
:104F70000590F491E02D09940E942C29332312F41A
:104F80008A1B9B0B0C94C6270E942C29B7FF0895FF
:104F9000821B930B0895002E083090F0982F872FD6
:104FA000762F652F542F432F322F22270850F4CF0E
:104FB000220F331F441F551F661F771F881F991F1D
:104FC0000A95B2F7002D089597FD1094002E083031
:104FD00098F00850232F342F452F562F672F782F06
:104FE000892F912DF4CF159497958795779567958F
:104FF00057954795379527950A95AAF71124002DBF
:1050000008958F929F92AF92BF92CF92DF92EF92CC
:10501000FF92CF93DF93EC01688179818A819B8134
:10502000611571058105910521F464E279ED8BE547
:1050300097E02DE133EF41E050E00E94D82849018C
:105040005A019B01AC01A7EAB1E40E94F7286B0169
:105050007C01ACEEB4EFA50194010E940529DC01AE
:10506000CB018C0D9D1DAE1DBF1DB7FF03C0019769
:10507000A109B04888839983AA83BB839F77DF9176
:10508000CF91FF90EF90DF90CF90BF90AF909F9027
:105090008F9008950E940128089580E091E00E9479
:1050A00001280895B0E0A0E08093000190930101F1
:1050B000A0930201B09303010895FC0141505040B8
:1050C00030F001900616D1F73197CF010895882767
:1050D00099270895FB01DC0104C08D91019080198E
:1050E00021F441505040C8F7881B990B0895FB01EB
:1050F000DC0102C001900D9241505040D8F7089554
:10510000F999FECF92BD81BDF89A992780B508958F
:10511000A6E1B0E044E050E00C94CA28A8E1B0E079
:1051200042E050E00C94CA28DC01A40FB51F4150A6
:10513000504048F0CB01840F951F2E910E94A52866
:1051400041505040D0F70895262FF999FECF92BDD7
:1051500081BDF89A019700B4021639F01FBA20BD3C
:105160000FB6F894FA9AF99A0FBE08950396272F6E
:105170000E94A5280E94A428252F0E94A528242F3C
:105180000C94A5280196272F0E94A5280C94A428EA
:10519000DC01CB01FC01F999FECF06C0F2BDE1BDF7
:1051A000F89A319600B40D9241505040B8F70895E6
:1051B000052E97FB1EF400940E94EF2857FD07D0A0
:1051C0000E940A2907FC03D04EF40C94EF28509556
:1051D0004095309521953F4F4F4F5F4F08959095E3
:1051E0008095709561957F4F8F4F9F4F08950E94D6
:1051F0002C29A59F900DB49F900DA49F800D911D0B
:1052000011240895B7FF0C94F7280E94F728821BF9
:10521000930B0895A1E21A2EAA1BBB1BFD010DC022
:10522000AA1FBB1FEE1FFF1FA217B307E407F50756
:1052300020F0A21BB30BE40BF50B661F771F881F32
:10524000991F1A9469F760957095809590959B01C8
:10525000AC01BD01CF010895A29FB001B39FC00171
:10526000A39F700D811D1124911DB29F700D811D92
:105270001124911D0895F894FFCF3E156615FE1672
:105280006615FE169915BA15FE16B716C416C5187A
:10529000C918A718C118CD18D118D5183019A519D3
:1052A0003819021906193C190A1940194C1916190E
:1052B0009E191A1950191E1954197C1922195819B6
:1052C000831928195E1966190E19441912194819FB
:1052D0002C19621972198C199C19FC183419AC1903
:1052E000B81AB81AF01AF01A991BB51B181B181B1C
:1052F000BA1B421C511C511CB719E119E819ED19D0
:10530000F219F719FC19011A061A0B1A101A151AB4
:10531000171A1C1A1F1A221A251A281A2A1A2D1AA5
:025320002F1A42
:105322000100000000000001000000000000000673
:105332000100000004070000000000000B0B000049
:1053420000000000F5F6F73133323635F49497C693
:105352003466017604E10D7504DA0DD30D01191AD4
:105362001B1C1D1E1F202122010201001000101013
:1053720001F49497C63435F5F6F731333236668147
:105382008283E200E900EA00B500B600B700CD0072
:105392008301CC008A01920194012102230224029A
:1053A2002502260227022A02B300B4006F00700011
:1053B2009F01CB019F02A0022F0200010202020202
:1053C2000606060909090909090F0F0F0F0F0F1524
:1053D2001515181919191919191919191923242523
:0653E2002525252525000C
:00000001FF
